{
  "_format": "hh-sol-artifact-1",
  "contractName": "Funding",
  "sourceName": "contracts/Funding.sol",
  "abi": [
    {
      "inputs": [],
      "stateMutability": "nonpayable",
      "type": "constructor"
    },
    {
      "anonymous": false,
      "inputs": [
        {
          "indexed": true,
          "internalType": "address",
          "name": "account",
          "type": "address"
        },
        {
          "indexed": true,
          "internalType": "address",
          "name": "operator",
          "type": "address"
        },
        {
          "indexed": false,
          "internalType": "bool",
          "name": "approved",
          "type": "bool"
        }
      ],
      "name": "ApprovalForAll",
      "type": "event"
    },
    {
      "anonymous": false,
      "inputs": [
        {
          "indexed": true,
          "internalType": "address",
          "name": "previousOwner",
          "type": "address"
        },
        {
          "indexed": true,
          "internalType": "address",
          "name": "newOwner",
          "type": "address"
        }
      ],
      "name": "OwnershipTransferred",
      "type": "event"
    },
    {
      "anonymous": false,
      "inputs": [
        {
          "indexed": true,
          "internalType": "address",
          "name": "operator",
          "type": "address"
        },
        {
          "indexed": true,
          "internalType": "address",
          "name": "from",
          "type": "address"
        },
        {
          "indexed": true,
          "internalType": "address",
          "name": "to",
          "type": "address"
        },
        {
          "indexed": false,
          "internalType": "uint256[]",
          "name": "ids",
          "type": "uint256[]"
        },
        {
          "indexed": false,
          "internalType": "uint256[]",
          "name": "values",
          "type": "uint256[]"
        }
      ],
      "name": "TransferBatch",
      "type": "event"
    },
    {
      "anonymous": false,
      "inputs": [
        {
          "indexed": true,
          "internalType": "address",
          "name": "operator",
          "type": "address"
        },
        {
          "indexed": true,
          "internalType": "address",
          "name": "from",
          "type": "address"
        },
        {
          "indexed": true,
          "internalType": "address",
          "name": "to",
          "type": "address"
        },
        {
          "indexed": false,
          "internalType": "uint256",
          "name": "id",
          "type": "uint256"
        },
        {
          "indexed": false,
          "internalType": "uint256",
          "name": "value",
          "type": "uint256"
        }
      ],
      "name": "TransferSingle",
      "type": "event"
    },
    {
      "anonymous": false,
      "inputs": [
        {
          "indexed": false,
          "internalType": "string",
          "name": "value",
          "type": "string"
        },
        {
          "indexed": true,
          "internalType": "uint256",
          "name": "id",
          "type": "uint256"
        }
      ],
      "name": "URI",
      "type": "event"
    },
    {
      "anonymous": false,
      "inputs": [
        {
          "indexed": true,
          "internalType": "address",
          "name": "_from",
          "type": "address"
        },
        {
          "indexed": false,
          "internalType": "uint256",
          "name": "time",
          "type": "uint256"
        },
        {
          "indexed": false,
          "internalType": "uint256",
          "name": "_value",
          "type": "uint256"
        }
      ],
      "name": "donation",
      "type": "event"
    },
    {
      "inputs": [],
      "name": "NFT0",
      "outputs": [
        {
          "internalType": "uint256",
          "name": "",
          "type": "uint256"
        }
      ],
      "stateMutability": "view",
      "type": "function"
    },
    {
      "inputs": [],
      "name": "NFT1",
      "outputs": [
        {
          "internalType": "uint256",
          "name": "",
          "type": "uint256"
        }
      ],
      "stateMutability": "view",
      "type": "function"
    },
    {
      "inputs": [],
      "name": "NFT2",
      "outputs": [
        {
          "internalType": "uint256",
          "name": "",
          "type": "uint256"
        }
      ],
      "stateMutability": "view",
      "type": "function"
    },
    {
      "inputs": [
        {
          "internalType": "address",
          "name": "account",
          "type": "address"
        },
        {
          "internalType": "uint256",
          "name": "id",
          "type": "uint256"
        }
      ],
      "name": "balanceOf",
      "outputs": [
        {
          "internalType": "uint256",
          "name": "",
          "type": "uint256"
        }
      ],
      "stateMutability": "view",
      "type": "function"
    },
    {
      "inputs": [
        {
          "internalType": "address[]",
          "name": "accounts",
          "type": "address[]"
        },
        {
          "internalType": "uint256[]",
          "name": "ids",
          "type": "uint256[]"
        }
      ],
      "name": "balanceOfBatch",
      "outputs": [
        {
          "internalType": "uint256[]",
          "name": "",
          "type": "uint256[]"
        }
      ],
      "stateMutability": "view",
      "type": "function"
    },
    {
      "inputs": [
        {
          "internalType": "uint256",
          "name": "id",
          "type": "uint256"
        }
      ],
      "name": "exists",
      "outputs": [
        {
          "internalType": "bool",
          "name": "",
          "type": "bool"
        }
      ],
      "stateMutability": "view",
      "type": "function"
    },
    {
      "inputs": [
        {
          "internalType": "address",
          "name": "account",
          "type": "address"
        },
        {
          "internalType": "address",
          "name": "operator",
          "type": "address"
        }
      ],
      "name": "isApprovedForAll",
      "outputs": [
        {
          "internalType": "bool",
          "name": "",
          "type": "bool"
        }
      ],
      "stateMutability": "view",
      "type": "function"
    },
    {
      "inputs": [],
      "name": "mint",
      "outputs": [],
      "stateMutability": "payable",
      "type": "function"
    },
    {
      "inputs": [
        {
          "internalType": "address",
          "name": "to",
          "type": "address"
        },
        {
          "internalType": "uint256[]",
          "name": "ids",
          "type": "uint256[]"
        },
        {
          "internalType": "uint256[]",
          "name": "amounts",
          "type": "uint256[]"
        },
        {
          "internalType": "bytes",
          "name": "data",
          "type": "bytes"
        }
      ],
      "name": "mintBatch",
      "outputs": [],
      "stateMutability": "nonpayable",
      "type": "function"
    },
    {
      "inputs": [],
      "name": "owner",
      "outputs": [
        {
          "internalType": "address",
          "name": "",
          "type": "address"
        }
      ],
      "stateMutability": "view",
      "type": "function"
    },
    {
      "inputs": [],
      "name": "renounceOwnership",
      "outputs": [],
      "stateMutability": "nonpayable",
      "type": "function"
    },
    {
      "inputs": [
        {
          "internalType": "address",
          "name": "from",
          "type": "address"
        },
        {
          "internalType": "address",
          "name": "to",
          "type": "address"
        },
        {
          "internalType": "uint256[]",
          "name": "ids",
          "type": "uint256[]"
        },
        {
          "internalType": "uint256[]",
          "name": "amounts",
          "type": "uint256[]"
        },
        {
          "internalType": "bytes",
          "name": "data",
          "type": "bytes"
        }
      ],
      "name": "safeBatchTransferFrom",
      "outputs": [],
      "stateMutability": "nonpayable",
      "type": "function"
    },
    {
      "inputs": [
        {
          "internalType": "address",
          "name": "from",
          "type": "address"
        },
        {
          "internalType": "address",
          "name": "to",
          "type": "address"
        },
        {
          "internalType": "uint256",
          "name": "id",
          "type": "uint256"
        },
        {
          "internalType": "uint256",
          "name": "amount",
          "type": "uint256"
        },
        {
          "internalType": "bytes",
          "name": "data",
          "type": "bytes"
        }
      ],
      "name": "safeTransferFrom",
      "outputs": [],
      "stateMutability": "nonpayable",
      "type": "function"
    },
    {
      "inputs": [
        {
          "internalType": "address",
          "name": "operator",
          "type": "address"
        },
        {
          "internalType": "bool",
          "name": "approved",
          "type": "bool"
        }
      ],
      "name": "setApprovalForAll",
      "outputs": [],
      "stateMutability": "nonpayable",
      "type": "function"
    },
    {
      "inputs": [
        {
          "internalType": "string",
          "name": "newuri",
          "type": "string"
        }
      ],
      "name": "setURI",
      "outputs": [],
      "stateMutability": "nonpayable",
      "type": "function"
    },
    {
      "inputs": [
        {
          "internalType": "bytes4",
          "name": "interfaceId",
          "type": "bytes4"
        }
      ],
      "name": "supportsInterface",
      "outputs": [
        {
          "internalType": "bool",
          "name": "",
          "type": "bool"
        }
      ],
      "stateMutability": "view",
      "type": "function"
    },
    {
      "inputs": [],
      "name": "totalRaised",
      "outputs": [
        {
          "internalType": "uint256",
          "name": "",
          "type": "uint256"
        }
      ],
      "stateMutability": "view",
      "type": "function"
    },
    {
      "inputs": [
        {
          "internalType": "uint256",
          "name": "id",
          "type": "uint256"
        }
      ],
      "name": "totalSupply",
      "outputs": [
        {
          "internalType": "uint256",
          "name": "",
          "type": "uint256"
        }
      ],
      "stateMutability": "view",
      "type": "function"
    },
    {
      "inputs": [
        {
          "internalType": "address",
          "name": "newOwner",
          "type": "address"
        }
      ],
      "name": "transferOwnership",
      "outputs": [],
      "stateMutability": "nonpayable",
      "type": "function"
    },
    {
      "inputs": [
        {
          "internalType": "uint256",
          "name": "_id",
          "type": "uint256"
        }
      ],
      "name": "uri",
      "outputs": [
        {
          "internalType": "string",
          "name": "",
          "type": "string"
        }
      ],
      "stateMutability": "view",
      "type": "function"
    },
    {
      "inputs": [],
      "name": "withdraw",
      "outputs": [],
      "stateMutability": "nonpayable",
      "type": "function"
    }
  ],
  "bytecode": "0x608060405260006005553480156200001657600080fd5b5060405180606001604052806036815260200162004219603691396200004281620000aa60201b60201c565b506200006362000057620000bf60201b60201c565b620000c760201b60201c565b33600660006101000a81548173ffffffffffffffffffffffffffffffffffffffff021916908373ffffffffffffffffffffffffffffffffffffffff160217905550620004ee565b8060029081620000bb919062000407565b5050565b600033905090565b6000600360009054906101000a900473ffffffffffffffffffffffffffffffffffffffff16905081600360006101000a81548173ffffffffffffffffffffffffffffffffffffffff021916908373ffffffffffffffffffffffffffffffffffffffff1602179055508173ffffffffffffffffffffffffffffffffffffffff168173ffffffffffffffffffffffffffffffffffffffff167f8be0079c531659141344cd1fd0a4f28419497f9722a3daafe3b4186f6b6457e060405160405180910390a35050565b600081519050919050565b7f4e487b7100000000000000000000000000000000000000000000000000000000600052604160045260246000fd5b7f4e487b7100000000000000000000000000000000000000000000000000000000600052602260045260246000fd5b600060028204905060018216806200020f57607f821691505b602082108103620002255762000224620001c7565b5b50919050565b60008190508160005260206000209050919050565b60006020601f8301049050919050565b600082821b905092915050565b6000600883026200028f7fffffffffffffffffffffffffffffffffffffffffffffffffffffffffffffffff8262000250565b6200029b868362000250565b95508019841693508086168417925050509392505050565b6000819050919050565b6000819050919050565b6000620002e8620002e2620002dc84620002b3565b620002bd565b620002b3565b9050919050565b6000819050919050565b6200030483620002c7565b6200031c6200031382620002ef565b8484546200025d565b825550505050565b600090565b6200033362000324565b62000340818484620002f9565b505050565b5b8181101562000368576200035c60008262000329565b60018101905062000346565b5050565b601f821115620003b75762000381816200022b565b6200038c8462000240565b810160208510156200039c578190505b620003b4620003ab8562000240565b83018262000345565b50505b505050565b600082821c905092915050565b6000620003dc60001984600802620003bc565b1980831691505092915050565b6000620003f78383620003c9565b9150826002028217905092915050565b62000412826200018d565b67ffffffffffffffff8111156200042e576200042d62000198565b5b6200043a8254620001f6565b620004478282856200036c565b600060209050601f8311600181146200047f57600084156200046a578287015190505b620004768582620003e9565b865550620004e6565b601f1984166200048f866200022b565b60005b82811015620004b95784890151825560018201915060208501945060208101905062000492565b86831015620004d95784890151620004d5601f891682620003c9565b8355505b6001600288020188555050505b505050505050565b613d1b80620004fe6000396000f3fe6080604052600436106101295760003560e01c80634f558e79116100ab578063c5c4744c1161006f578063c5c4744c146103ce578063e985e9c5146103f9578063efba72d514610436578063f242432a14610461578063f2fde38b1461048a578063ff4e6116146104b357610129565b80634f558e79146102e9578063715018a6146103265780638da5cb5b1461033d578063a22cb46514610368578063bd85b0391461039157610129565b80631f7fdffa116100f25780631f7fdffa146102185780632eb2c2d61461024157806333a04a171461026a5780633ccfd60b146102955780634e1273f4146102ac57610129565b8062fdd58e1461012e57806301ffc9a71461016b57806302fe5305146101a85780630e89341c146101d15780631249c58b1461020e575b600080fd5b34801561013a57600080fd5b5061015560048036038101906101509190612363565b6104de565b60405161016291906123b2565b60405180910390f35b34801561017757600080fd5b50610192600480360381019061018d9190612425565b6105a6565b60405161019f919061246d565b60405180910390f35b3480156101b457600080fd5b506101cf60048036038101906101ca91906125ce565b610688565b005b3480156101dd57600080fd5b506101f860048036038101906101f39190612617565b61069c565b60405161020591906126c3565b60405180910390f35b61021661071f565b005b34801561022457600080fd5b5061023f600480360381019061023a919061284e565b610859565b005b34801561024d57600080fd5b5061026860048036038101906102639190612909565b610873565b005b34801561027657600080fd5b5061027f610914565b60405161028c91906123b2565b60405180910390f35b3480156102a157600080fd5b506102aa610919565b005b3480156102b857600080fd5b506102d360048036038101906102ce9190612a9b565b610992565b6040516102e09190612bd1565b60405180910390f35b3480156102f557600080fd5b50610310600480360381019061030b9190612617565b610aab565b60405161031d919061246d565b60405180910390f35b34801561033257600080fd5b5061033b610abf565b005b34801561034957600080fd5b50610352610ad3565b60405161035f9190612c02565b60405180910390f35b34801561037457600080fd5b5061038f600480360381019061038a9190612c49565b610afd565b005b34801561039d57600080fd5b506103b860048036038101906103b39190612617565b610b13565b6040516103c591906123b2565b60405180910390f35b3480156103da57600080fd5b506103e3610b30565b6040516103f091906123b2565b60405180910390f35b34801561040557600080fd5b50610420600480360381019061041b9190612c89565b610b36565b60405161042d919061246d565b60405180910390f35b34801561044257600080fd5b5061044b610bca565b60405161045891906123b2565b60405180910390f35b34801561046d57600080fd5b5061048860048036038101906104839190612cc9565b610bcf565b005b34801561049657600080fd5b506104b160048036038101906104ac9190612d60565b610c70565b005b3480156104bf57600080fd5b506104c8610cf3565b6040516104d591906123b2565b60405180910390f35b60008073ffffffffffffffffffffffffffffffffffffffff168373ffffffffffffffffffffffffffffffffffffffff160361054e576040517f08c379a000000000000000000000000000000000000000000000000000000000815260040161054590612dff565b60405180910390fd5b60008083815260200190815260200160002060008473ffffffffffffffffffffffffffffffffffffffff1673ffffffffffffffffffffffffffffffffffffffff16815260200190815260200160002054905092915050565b60007fd9b67a26000000000000000000000000000000000000000000000000000000007bffffffffffffffffffffffffffffffffffffffffffffffffffffffff1916827bffffffffffffffffffffffffffffffffffffffffffffffffffffffff1916148061067157507f0e89341c000000000000000000000000000000000000000000000000000000007bffffffffffffffffffffffffffffffffffffffffffffffffffffffff1916827bffffffffffffffffffffffffffffffffffffffffffffffffffffffff1916145b80610681575061068082610cf8565b5b9050919050565b610690610d62565b61069981610de0565b50565b60606106a782610aab565b6106e6576040517f08c379a00000000000000000000000000000000000000000000000000000000081526004016106dd90612e6b565b60405180910390fd5b6106ef82610df3565b6106f883610e87565b604051602001610709929190612f13565b6040516020818303038152906040529050919050565b662386f26fc10000341015610769576040517f08c379a000000000000000000000000000000000000000000000000000000000815260040161076090612fb4565b60405180910390fd5b662386f26fc10000341061079557610794336000600160405180602001604052806000815250610f55565b5b6706f05b59d3b2000034106107c1576107c03360018060405180602001604052806000815250610f55565b5b670de0b6b3a764000034106107ee576107ed336002600160405180602001604052806000815250610f55565b5b34600560008282546108009190613003565b925050819055503373ffffffffffffffffffffffffffffffffffffffff167fe48d5429a0cfa135655fa158e658c8a8336f8ad30b93195b0cadc18e870a3d75423460405161084f929190613037565b60405180910390a2565b610861610d62565b61086d84848484611105565b50505050565b61087b611331565b73ffffffffffffffffffffffffffffffffffffffff168573ffffffffffffffffffffffffffffffffffffffff1614806108c157506108c0856108bb611331565b610b36565b5b610900576040517f08c379a00000000000000000000000000000000000000000000000000000000081526004016108f7906130d2565b60405180910390fd5b61090d8585858585611339565b5050505050565b600281565b610921610d62565b6000479050600660009054906101000a900473ffffffffffffffffffffffffffffffffffffffff1673ffffffffffffffffffffffffffffffffffffffff166108fc829081150290604051600060405180830381858888f1935050505015801561098e573d6000803e3d6000fd5b5050565b606081518351146109d8576040517f08c379a00000000000000000000000000000000000000000000000000000000081526004016109cf90613164565b60405180910390fd5b6000835167ffffffffffffffff8111156109f5576109f46124a3565b5b604051908082528060200260200182016040528015610a235781602001602082028036833780820191505090505b50905060005b8451811015610aa057610a70858281518110610a4857610a47613184565b5b6020026020010151858381518110610a6357610a62613184565b5b60200260200101516104de565b828281518110610a8357610a82613184565b5b60200260200101818152505080610a99906131b3565b9050610a29565b508091505092915050565b600080610ab783610b13565b119050919050565b610ac7610d62565b610ad1600061165a565b565b6000600360009054906101000a900473ffffffffffffffffffffffffffffffffffffffff16905090565b610b0f610b08611331565b8383611720565b5050565b600060046000838152602001908152602001600020549050919050565b60055481565b6000600160008473ffffffffffffffffffffffffffffffffffffffff1673ffffffffffffffffffffffffffffffffffffffff16815260200190815260200160002060008373ffffffffffffffffffffffffffffffffffffffff1673ffffffffffffffffffffffffffffffffffffffff16815260200190815260200160002060009054906101000a900460ff16905092915050565b600181565b610bd7611331565b73ffffffffffffffffffffffffffffffffffffffff168573ffffffffffffffffffffffffffffffffffffffff161480610c1d5750610c1c85610c17611331565b610b36565b5b610c5c576040517f08c379a0000000000000000000000000000000000000000000000000000000008152600401610c53906130d2565b60405180910390fd5b610c69858585858561188c565b5050505050565b610c78610d62565b600073ffffffffffffffffffffffffffffffffffffffff168173ffffffffffffffffffffffffffffffffffffffff1603610ce7576040517f08c379a0000000000000000000000000000000000000000000000000000000008152600401610cde9061326d565b60405180910390fd5b610cf08161165a565b50565b600081565b60007f01ffc9a7000000000000000000000000000000000000000000000000000000007bffffffffffffffffffffffffffffffffffffffffffffffffffffffff1916827bffffffffffffffffffffffffffffffffffffffffffffffffffffffff1916149050919050565b610d6a611331565b73ffffffffffffffffffffffffffffffffffffffff16610d88610ad3565b73ffffffffffffffffffffffffffffffffffffffff1614610dde576040517f08c379a0000000000000000000000000000000000000000000000000000000008152600401610dd5906132d9565b60405180910390fd5b565b8060029081610def9190613505565b5050565b606060028054610e0290613328565b80601f0160208091040260200160405190810160405280929190818152602001828054610e2e90613328565b8015610e7b5780601f10610e5057610100808354040283529160200191610e7b565b820191906000526020600020905b815481529060010190602001808311610e5e57829003601f168201915b50505050509050919050565b606060006001610e9684611b27565b01905060008167ffffffffffffffff811115610eb557610eb46124a3565b5b6040519080825280601f01601f191660200182016040528015610ee75781602001600182028036833780820191505090505b509050600082602001820190505b600115610f4a578080600190039150507f3031323334353637383961626364656600000000000000000000000000000000600a86061a8153600a8581610f3e57610f3d6135d7565b5b04945060008503610ef5575b819350505050919050565b600073ffffffffffffffffffffffffffffffffffffffff168473ffffffffffffffffffffffffffffffffffffffff1603610fc4576040517f08c379a0000000000000000000000000000000000000000000000000000000008152600401610fbb90613678565b60405180910390fd5b6000610fce611331565b90506000610fdb85611c7a565b90506000610fe885611c7a565b9050610ff983600089858589611cf4565b8460008088815260200190815260200160002060008973ffffffffffffffffffffffffffffffffffffffff1673ffffffffffffffffffffffffffffffffffffffff16815260200190815260200160002060008282546110589190613003565b925050819055508673ffffffffffffffffffffffffffffffffffffffff16600073ffffffffffffffffffffffffffffffffffffffff168473ffffffffffffffffffffffffffffffffffffffff167fc3d58168c5ae7397731d063d5bbf3d657854427343f4c083240f7aacaa2d0f6289896040516110d6929190613037565b60405180910390a46110ed83600089858589611d0a565b6110fc83600089898989611d12565b50505050505050565b600073ffffffffffffffffffffffffffffffffffffffff168473ffffffffffffffffffffffffffffffffffffffff1603611174576040517f08c379a000000000000000000000000000000000000000000000000000000000815260040161116b90613678565b60405180910390fd5b81518351146111b8576040517f08c379a00000000000000000000000000000000000000000000000000000000081526004016111af9061370a565b60405180910390fd5b60006111c2611331565b90506111d381600087878787611cf4565b60005b845181101561128c578381815181106111f2576111f1613184565b5b60200260200101516000808784815181106112105761120f613184565b5b6020026020010151815260200190815260200160002060008873ffffffffffffffffffffffffffffffffffffffff1673ffffffffffffffffffffffffffffffffffffffff16815260200190815260200160002060008282546112729190613003565b925050819055508080611284906131b3565b9150506111d6565b508473ffffffffffffffffffffffffffffffffffffffff16600073ffffffffffffffffffffffffffffffffffffffff168273ffffffffffffffffffffffffffffffffffffffff167f4a39dc06d4c0dbc64b70af90fd698a233a518aa5d07e595d983b8c0526c8f7fb878760405161130492919061372a565b60405180910390a461131b81600087878787611d0a565b61132a81600087878787611ee9565b5050505050565b600033905090565b815183511461137d576040517f08c379a00000000000000000000000000000000000000000000000000000000081526004016113749061370a565b60405180910390fd5b600073ffffffffffffffffffffffffffffffffffffffff168473ffffffffffffffffffffffffffffffffffffffff16036113ec576040517f08c379a00000000000000000000000000000000000000000000000000000000081526004016113e3906137d3565b60405180910390fd5b60006113f6611331565b9050611406818787878787611cf4565b60005b84518110156115b757600085828151811061142757611426613184565b5b60200260200101519050600085838151811061144657611445613184565b5b60200260200101519050600080600084815260200190815260200160002060008b73ffffffffffffffffffffffffffffffffffffffff1673ffffffffffffffffffffffffffffffffffffffff168152602001908152602001600020549050818110156114e7576040517f08c379a00000000000000000000000000000000000000000000000000000000081526004016114de90613865565b60405180910390fd5b81810360008085815260200190815260200160002060008c73ffffffffffffffffffffffffffffffffffffffff1673ffffffffffffffffffffffffffffffffffffffff168152602001908152602001600020819055508160008085815260200190815260200160002060008b73ffffffffffffffffffffffffffffffffffffffff1673ffffffffffffffffffffffffffffffffffffffff168152602001908152602001600020600082825461159c9190613003565b92505081905550505050806115b0906131b3565b9050611409565b508473ffffffffffffffffffffffffffffffffffffffff168673ffffffffffffffffffffffffffffffffffffffff168273ffffffffffffffffffffffffffffffffffffffff167f4a39dc06d4c0dbc64b70af90fd698a233a518aa5d07e595d983b8c0526c8f7fb878760405161162e92919061372a565b60405180910390a4611644818787878787611d0a565b611652818787878787611ee9565b505050505050565b6000600360009054906101000a900473ffffffffffffffffffffffffffffffffffffffff16905081600360006101000a81548173ffffffffffffffffffffffffffffffffffffffff021916908373ffffffffffffffffffffffffffffffffffffffff1602179055508173ffffffffffffffffffffffffffffffffffffffff168173ffffffffffffffffffffffffffffffffffffffff167f8be0079c531659141344cd1fd0a4f28419497f9722a3daafe3b4186f6b6457e060405160405180910390a35050565b8173ffffffffffffffffffffffffffffffffffffffff168373ffffffffffffffffffffffffffffffffffffffff160361178e576040517f08c379a0000000000000000000000000000000000000000000000000000000008152600401611785906138f7565b60405180910390fd5b80600160008573ffffffffffffffffffffffffffffffffffffffff1673ffffffffffffffffffffffffffffffffffffffff16815260200190815260200160002060008473ffffffffffffffffffffffffffffffffffffffff1673ffffffffffffffffffffffffffffffffffffffff16815260200190815260200160002060006101000a81548160ff0219169083151502179055508173ffffffffffffffffffffffffffffffffffffffff168373ffffffffffffffffffffffffffffffffffffffff167f17307eab39ab6107e8899845ad3d59bd9653f200f220920489ca2b5937696c318360405161187f919061246d565b60405180910390a3505050565b600073ffffffffffffffffffffffffffffffffffffffff168473ffffffffffffffffffffffffffffffffffffffff16036118fb576040517f08c379a00000000000000000000000000000000000000000000000000000000081526004016118f2906137d3565b60405180910390fd5b6000611905611331565b9050600061191285611c7a565b9050600061191f85611c7a565b905061192f838989858589611cf4565b600080600088815260200190815260200160002060008a73ffffffffffffffffffffffffffffffffffffffff1673ffffffffffffffffffffffffffffffffffffffff168152602001908152602001600020549050858110156119c6576040517f08c379a00000000000000000000000000000000000000000000000000000000081526004016119bd90613865565b60405180910390fd5b85810360008089815260200190815260200160002060008b73ffffffffffffffffffffffffffffffffffffffff1673ffffffffffffffffffffffffffffffffffffffff168152602001908152602001600020819055508560008089815260200190815260200160002060008a73ffffffffffffffffffffffffffffffffffffffff1673ffffffffffffffffffffffffffffffffffffffff1681526020019081526020016000206000828254611a7b9190613003565b925050819055508773ffffffffffffffffffffffffffffffffffffffff168973ffffffffffffffffffffffffffffffffffffffff168573ffffffffffffffffffffffffffffffffffffffff167fc3d58168c5ae7397731d063d5bbf3d657854427343f4c083240f7aacaa2d0f628a8a604051611af8929190613037565b60405180910390a4611b0e848a8a86868a611d0a565b611b1c848a8a8a8a8a611d12565b505050505050505050565b600080600090507a184f03e93ff9f4daa797ed6e38ed64bf6a1f0100000000000000008310611b85577a184f03e93ff9f4daa797ed6e38ed64bf6a1f0100000000000000008381611b7b57611b7a6135d7565b5b0492506040810190505b6d04ee2d6d415b85acef81000000008310611bc2576d04ee2d6d415b85acef81000000008381611bb857611bb76135d7565b5b0492506020810190505b662386f26fc100008310611bf157662386f26fc100008381611be757611be66135d7565b5b0492506010810190505b6305f5e1008310611c1a576305f5e1008381611c1057611c0f6135d7565b5b0492506008810190505b6127108310611c3f576127108381611c3557611c346135d7565b5b0492506004810190505b60648310611c625760648381611c5857611c576135d7565b5b0492506002810190505b600a8310611c71576001810190505b80915050919050565b60606000600167ffffffffffffffff811115611c9957611c986124a3565b5b604051908082528060200260200182016040528015611cc75781602001602082028036833780820191505090505b5090508281600081518110611cdf57611cde613184565b5b60200260200101818152505080915050919050565b611d028686868686866120c0565b505050505050565b505050505050565b611d318473ffffffffffffffffffffffffffffffffffffffff16612290565b15611ee1578373ffffffffffffffffffffffffffffffffffffffff1663f23a6e6187878686866040518663ffffffff1660e01b8152600401611d7795949392919061396c565b6020604051808303816000875af1925050508015611db357506040513d601f19601f82011682018060405250810190611db091906139db565b60015b611e5857611dbf613a15565b806308c379a003611e1b5750611dd3613a37565b80611dde5750611e1d565b806040517f08c379a0000000000000000000000000000000000000000000000000000000008152600401611e1291906126c3565b60405180910390fd5b505b6040517f08c379a0000000000000000000000000000000000000000000000000000000008152600401611e4f90613b39565b60405180910390fd5b63f23a6e6160e01b7bffffffffffffffffffffffffffffffffffffffffffffffffffffffff1916817bffffffffffffffffffffffffffffffffffffffffffffffffffffffff191614611edf576040517f08c379a0000000000000000000000000000000000000000000000000000000008152600401611ed690613bcb565b60405180910390fd5b505b505050505050565b611f088473ffffffffffffffffffffffffffffffffffffffff16612290565b156120b8578373ffffffffffffffffffffffffffffffffffffffff1663bc197c8187878686866040518663ffffffff1660e01b8152600401611f4e959493929190613beb565b6020604051808303816000875af1925050508015611f8a57506040513d601f19601f82011682018060405250810190611f8791906139db565b60015b61202f57611f96613a15565b806308c379a003611ff25750611faa613a37565b80611fb55750611ff4565b806040517f08c379a0000000000000000000000000000000000000000000000000000000008152600401611fe991906126c3565b60405180910390fd5b505b6040517f08c379a000000000000000000000000000000000000000000000000000000000815260040161202690613b39565b60405180910390fd5b63bc197c8160e01b7bffffffffffffffffffffffffffffffffffffffffffffffffffffffff1916817bffffffffffffffffffffffffffffffffffffffffffffffffffffffff1916146120b6576040517f08c379a00000000000000000000000000000000000000000000000000000000081526004016120ad90613bcb565b60405180910390fd5b505b505050505050565b6120ce8686868686866122b3565b600073ffffffffffffffffffffffffffffffffffffffff168573ffffffffffffffffffffffffffffffffffffffff160361217f5760005b835181101561217d5782818151811061212157612120613184565b5b6020026020010151600460008684815181106121405761213f613184565b5b6020026020010151815260200190815260200160002060008282546121659190613003565b9250508190555080612176906131b3565b9050612105565b505b600073ffffffffffffffffffffffffffffffffffffffff168473ffffffffffffffffffffffffffffffffffffffff16036122885760005b83518110156122865760008482815181106121d4576121d3613184565b5b6020026020010151905060008483815181106121f3576121f2613184565b5b6020026020010151905060006004600084815260200190815260200160002054905081811015612258576040517f08c379a000000000000000000000000000000000000000000000000000000000815260040161224f90613cc5565b60405180910390fd5b81810360046000858152602001908152602001600020819055505050508061227f906131b3565b90506121b6565b505b505050505050565b6000808273ffffffffffffffffffffffffffffffffffffffff163b119050919050565b505050505050565b6000604051905090565b600080fd5b600080fd5b600073ffffffffffffffffffffffffffffffffffffffff82169050919050565b60006122fa826122cf565b9050919050565b61230a816122ef565b811461231557600080fd5b50565b60008135905061232781612301565b92915050565b6000819050919050565b6123408161232d565b811461234b57600080fd5b50565b60008135905061235d81612337565b92915050565b6000806040838503121561237a576123796122c5565b5b600061238885828601612318565b92505060206123998582860161234e565b9150509250929050565b6123ac8161232d565b82525050565b60006020820190506123c760008301846123a3565b92915050565b60007fffffffff0000000000000000000000000000000000000000000000000000000082169050919050565b612402816123cd565b811461240d57600080fd5b50565b60008135905061241f816123f9565b92915050565b60006020828403121561243b5761243a6122c5565b5b600061244984828501612410565b91505092915050565b60008115159050919050565b61246781612452565b82525050565b6000602082019050612482600083018461245e565b92915050565b600080fd5b600080fd5b6000601f19601f8301169050919050565b7f4e487b7100000000000000000000000000000000000000000000000000000000600052604160045260246000fd5b6124db82612492565b810181811067ffffffffffffffff821117156124fa576124f96124a3565b5b80604052505050565b600061250d6122bb565b905061251982826124d2565b919050565b600067ffffffffffffffff821115612539576125386124a3565b5b61254282612492565b9050602081019050919050565b82818337600083830152505050565b600061257161256c8461251e565b612503565b90508281526020810184848401111561258d5761258c61248d565b5b61259884828561254f565b509392505050565b600082601f8301126125b5576125b4612488565b5b81356125c584826020860161255e565b91505092915050565b6000602082840312156125e4576125e36122c5565b5b600082013567ffffffffffffffff811115612602576126016122ca565b5b61260e848285016125a0565b91505092915050565b60006020828403121561262d5761262c6122c5565b5b600061263b8482850161234e565b91505092915050565b600081519050919050565b600082825260208201905092915050565b60005b8381101561267e578082015181840152602081019050612663565b60008484015250505050565b600061269582612644565b61269f818561264f565b93506126af818560208601612660565b6126b881612492565b840191505092915050565b600060208201905081810360008301526126dd818461268a565b905092915050565b600067ffffffffffffffff821115612700576126ff6124a3565b5b602082029050602081019050919050565b600080fd5b6000612729612724846126e5565b612503565b9050808382526020820190506020840283018581111561274c5761274b612711565b5b835b818110156127755780612761888261234e565b84526020840193505060208101905061274e565b5050509392505050565b600082601f83011261279457612793612488565b5b81356127a4848260208601612716565b91505092915050565b600067ffffffffffffffff8211156127c8576127c76124a3565b5b6127d182612492565b9050602081019050919050565b60006127f16127ec846127ad565b612503565b90508281526020810184848401111561280d5761280c61248d565b5b61281884828561254f565b509392505050565b600082601f83011261283557612834612488565b5b81356128458482602086016127de565b91505092915050565b60008060008060808587031215612868576128676122c5565b5b600061287687828801612318565b945050602085013567ffffffffffffffff811115612897576128966122ca565b5b6128a38782880161277f565b935050604085013567ffffffffffffffff8111156128c4576128c36122ca565b5b6128d08782880161277f565b925050606085013567ffffffffffffffff8111156128f1576128f06122ca565b5b6128fd87828801612820565b91505092959194509250565b600080600080600060a08688031215612925576129246122c5565b5b600061293388828901612318565b955050602061294488828901612318565b945050604086013567ffffffffffffffff811115612965576129646122ca565b5b6129718882890161277f565b935050606086013567ffffffffffffffff811115612992576129916122ca565b5b61299e8882890161277f565b925050608086013567ffffffffffffffff8111156129bf576129be6122ca565b5b6129cb88828901612820565b9150509295509295909350565b600067ffffffffffffffff8211156129f3576129f26124a3565b5b602082029050602081019050919050565b6000612a17612a12846129d8565b612503565b90508083825260208201905060208402830185811115612a3a57612a39612711565b5b835b81811015612a635780612a4f8882612318565b845260208401935050602081019050612a3c565b5050509392505050565b600082601f830112612a8257612a81612488565b5b8135612a92848260208601612a04565b91505092915050565b60008060408385031215612ab257612ab16122c5565b5b600083013567ffffffffffffffff811115612ad057612acf6122ca565b5b612adc85828601612a6d565b925050602083013567ffffffffffffffff811115612afd57612afc6122ca565b5b612b098582860161277f565b9150509250929050565b600081519050919050565b600082825260208201905092915050565b6000819050602082019050919050565b612b488161232d565b82525050565b6000612b5a8383612b3f565b60208301905092915050565b6000602082019050919050565b6000612b7e82612b13565b612b888185612b1e565b9350612b9383612b2f565b8060005b83811015612bc4578151612bab8882612b4e565b9750612bb683612b66565b925050600181019050612b97565b5085935050505092915050565b60006020820190508181036000830152612beb8184612b73565b905092915050565b612bfc816122ef565b82525050565b6000602082019050612c176000830184612bf3565b92915050565b612c2681612452565b8114612c3157600080fd5b50565b600081359050612c4381612c1d565b92915050565b60008060408385031215612c6057612c5f6122c5565b5b6000612c6e85828601612318565b9250506020612c7f85828601612c34565b9150509250929050565b60008060408385031215612ca057612c9f6122c5565b5b6000612cae85828601612318565b9250506020612cbf85828601612318565b9150509250929050565b600080600080600060a08688031215612ce557612ce46122c5565b5b6000612cf388828901612318565b9550506020612d0488828901612318565b9450506040612d158882890161234e565b9350506060612d268882890161234e565b925050608086013567ffffffffffffffff811115612d4757612d466122ca565b5b612d5388828901612820565b9150509295509295909350565b600060208284031215612d7657612d756122c5565b5b6000612d8484828501612318565b91505092915050565b7f455243313135353a2061646472657373207a65726f206973206e6f742061207660008201527f616c6964206f776e657200000000000000000000000000000000000000000000602082015250565b6000612de9602a8361264f565b9150612df482612d8d565b604082019050919050565b60006020820190508181036000830152612e1881612ddc565b9050919050565b7f5552493a206e6f6e6578697374656e7420746f6b656e00000000000000000000600082015250565b6000612e5560168361264f565b9150612e6082612e1f565b602082019050919050565b60006020820190508181036000830152612e8481612e48565b9050919050565b600081905092915050565b6000612ea182612644565b612eab8185612e8b565b9350612ebb818560208601612660565b80840191505092915050565b7f2e6a736f6e000000000000000000000000000000000000000000000000000000600082015250565b6000612efd600583612e8b565b9150612f0882612ec7565b600582019050919050565b6000612f1f8285612e96565b9150612f2b8284612e96565b9150612f3682612ef0565b91508190509392505050565b7f506c6561736520656e74657220616e20616d6f756e742067726561746572207460008201527f68616e20302e3031206574686572000000000000000000000000000000000000602082015250565b6000612f9e602e8361264f565b9150612fa982612f42565b604082019050919050565b60006020820190508181036000830152612fcd81612f91565b9050919050565b7f4e487b7100000000000000000000000000000000000000000000000000000000600052601160045260246000fd5b600061300e8261232d565b91506130198361232d565b925082820190508082111561303157613030612fd4565b5b92915050565b600060408201905061304c60008301856123a3565b61305960208301846123a3565b9392505050565b7f455243313135353a2063616c6c6572206973206e6f7420746f6b656e206f776e60008201527f6572206f7220617070726f766564000000000000000000000000000000000000602082015250565b60006130bc602e8361264f565b91506130c782613060565b604082019050919050565b600060208201905081810360008301526130eb816130af565b9050919050565b7f455243313135353a206163636f756e747320616e6420696473206c656e67746860008201527f206d69736d617463680000000000000000000000000000000000000000000000602082015250565b600061314e60298361264f565b9150613159826130f2565b604082019050919050565b6000602082019050818103600083015261317d81613141565b9050919050565b7f4e487b7100000000000000000000000000000000000000000000000000000000600052603260045260246000fd5b60006131be8261232d565b91507fffffffffffffffffffffffffffffffffffffffffffffffffffffffffffffffff82036131f0576131ef612fd4565b5b600182019050919050565b7f4f776e61626c653a206e6577206f776e657220697320746865207a65726f206160008201527f6464726573730000000000000000000000000000000000000000000000000000602082015250565b600061325760268361264f565b9150613262826131fb565b604082019050919050565b600060208201905081810360008301526132868161324a565b9050919050565b7f4f776e61626c653a2063616c6c6572206973206e6f7420746865206f776e6572600082015250565b60006132c360208361264f565b91506132ce8261328d565b602082019050919050565b600060208201905081810360008301526132f2816132b6565b9050919050565b7f4e487b7100000000000000000000000000000000000000000000000000000000600052602260045260246000fd5b6000600282049050600182168061334057607f821691505b602082108103613353576133526132f9565b5b50919050565b60008190508160005260206000209050919050565b60006020601f8301049050919050565b600082821b905092915050565b6000600883026133bb7fffffffffffffffffffffffffffffffffffffffffffffffffffffffffffffffff8261337e565b6133c5868361337e565b95508019841693508086168417925050509392505050565b6000819050919050565b60006134026133fd6133f88461232d565b6133dd565b61232d565b9050919050565b6000819050919050565b61341c836133e7565b61343061342882613409565b84845461338b565b825550505050565b600090565b613445613438565b613450818484613413565b505050565b5b818110156134745761346960008261343d565b600181019050613456565b5050565b601f8211156134b95761348a81613359565b6134938461336e565b810160208510156134a2578190505b6134b66134ae8561336e565b830182613455565b50505b505050565b600082821c905092915050565b60006134dc600019846008026134be565b1980831691505092915050565b60006134f583836134cb565b9150826002028217905092915050565b61350e82612644565b67ffffffffffffffff811115613527576135266124a3565b5b6135318254613328565b61353c828285613478565b600060209050601f83116001811461356f576000841561355d578287015190505b61356785826134e9565b8655506135cf565b601f19841661357d86613359565b60005b828110156135a557848901518255600182019150602085019450602081019050613580565b868310156135c257848901516135be601f8916826134cb565b8355505b6001600288020188555050505b505050505050565b7f4e487b7100000000000000000000000000000000000000000000000000000000600052601260045260246000fd5b7f455243313135353a206d696e7420746f20746865207a65726f2061646472657360008201527f7300000000000000000000000000000000000000000000000000000000000000602082015250565b600061366260218361264f565b915061366d82613606565b604082019050919050565b6000602082019050818103600083015261369181613655565b9050919050565b7f455243313135353a2069647320616e6420616d6f756e7473206c656e6774682060008201527f6d69736d61746368000000000000000000000000000000000000000000000000602082015250565b60006136f460288361264f565b91506136ff82613698565b604082019050919050565b60006020820190508181036000830152613723816136e7565b9050919050565b600060408201905081810360008301526137448185612b73565b905081810360208301526137588184612b73565b90509392505050565b7f455243313135353a207472616e7366657220746f20746865207a65726f20616460008201527f6472657373000000000000000000000000000000000000000000000000000000602082015250565b60006137bd60258361264f565b91506137c882613761565b604082019050919050565b600060208201905081810360008301526137ec816137b0565b9050919050565b7f455243313135353a20696e73756666696369656e742062616c616e636520666f60008201527f72207472616e7366657200000000000000000000000000000000000000000000602082015250565b600061384f602a8361264f565b915061385a826137f3565b604082019050919050565b6000602082019050818103600083015261387e81613842565b9050919050565b7f455243313135353a2073657474696e6720617070726f76616c2073746174757360008201527f20666f722073656c660000000000000000000000000000000000000000000000602082015250565b60006138e160298361264f565b91506138ec82613885565b604082019050919050565b60006020820190508181036000830152613910816138d4565b9050919050565b600081519050919050565b600082825260208201905092915050565b600061393e82613917565b6139488185613922565b9350613958818560208601612660565b61396181612492565b840191505092915050565b600060a0820190506139816000830188612bf3565b61398e6020830187612bf3565b61399b60408301866123a3565b6139a860608301856123a3565b81810360808301526139ba8184613933565b90509695505050505050565b6000815190506139d5816123f9565b92915050565b6000602082840312156139f1576139f06122c5565b5b60006139ff848285016139c6565b91505092915050565b60008160e01c9050919050565b600060033d1115613a345760046000803e613a31600051613a08565b90505b90565b600060443d10613ac457613a496122bb565b60043d036004823e80513d602482011167ffffffffffffffff82111715613a71575050613ac4565b808201805167ffffffffffffffff811115613a8f5750505050613ac4565b80602083010160043d038501811115613aac575050505050613ac4565b613abb826020018501866124d2565b82955050505050505b90565b7f455243313135353a207472616e7366657220746f206e6f6e2d4552433131353560008201527f526563656976657220696d706c656d656e746572000000000000000000000000602082015250565b6000613b2360348361264f565b9150613b2e82613ac7565b604082019050919050565b60006020820190508181036000830152613b5281613b16565b9050919050565b7f455243313135353a204552433131353552656365697665722072656a6563746560008201527f6420746f6b656e73000000000000000000000000000000000000000000000000602082015250565b6000613bb560288361264f565b9150613bc082613b59565b604082019050919050565b60006020820190508181036000830152613be481613ba8565b9050919050565b600060a082019050613c006000830188612bf3565b613c0d6020830187612bf3565b8181036040830152613c1f8186612b73565b90508181036060830152613c338185612b73565b90508181036080830152613c478184613933565b90509695505050505050565b7f455243313135353a206275726e20616d6f756e74206578636565647320746f7460008201527f616c537570706c79000000000000000000000000000000000000000000000000602082015250565b6000613caf60288361264f565b9150613cba82613c53565b604082019050919050565b60006020820190508181036000830152613cde81613ca2565b905091905056fea26469706673582212201cdee0c428d8f5552fb2f7c01b054476d51ceec3bda1b6259f1ba52acf01bf9c64736f6c63430008110033697066733a2f2f516d544234473632733472573253414237413542503457375139356836746e784a70546959596b64454864376f7a2f",
  "linkReferences": {},
  "deployedLinkReferences": {}
}